{
  "contractName": "Lottery",
  "abi": [
    {
      "anonymous": false,
      "inputs": [
        {
          "indexed": false,
          "internalType": "string",
          "name": "status",
          "type": "string"
        }
      ],
      "name": "Status",
      "type": "event"
    },
    {
      "anonymous": false,
      "inputs": [
        {
          "indexed": false,
          "internalType": "address",
          "name": "winner",
          "type": "address"
        },
        {
          "indexed": false,
          "internalType": "uint256",
          "name": "index",
          "type": "uint256"
        },
        {
          "indexed": false,
          "internalType": "uint256",
          "name": "prize",
          "type": "uint256"
        }
      ],
      "name": "WinnerPicked",
      "type": "event"
    },
    {
      "inputs": [],
      "name": "countdownStatus",
      "outputs": [
        {
          "internalType": "bool",
          "name": "",
          "type": "bool"
        }
      ],
      "stateMutability": "view",
      "type": "function",
      "constant": true
    },
    {
      "inputs": [],
      "name": "manager",
      "outputs": [
        {
          "internalType": "address",
          "name": "",
          "type": "address"
        }
      ],
      "stateMutability": "view",
      "type": "function",
      "constant": true
    },
    {
      "inputs": [
        {
          "internalType": "uint256",
          "name": "",
          "type": "uint256"
        }
      ],
      "name": "players",
      "outputs": [
        {
          "internalType": "address",
          "name": "",
          "type": "address"
        }
      ],
      "stateMutability": "view",
      "type": "function",
      "constant": true
    },
    {
      "inputs": [],
      "name": "prize",
      "outputs": [
        {
          "internalType": "uint256",
          "name": "",
          "type": "uint256"
        }
      ],
      "stateMutability": "view",
      "type": "function",
      "constant": true
    },
    {
      "inputs": [],
      "name": "winner",
      "outputs": [
        {
          "internalType": "address",
          "name": "",
          "type": "address"
        }
      ],
      "stateMutability": "view",
      "type": "function",
      "constant": true
    },
    {
      "inputs": [
        {
          "internalType": "address",
          "name": "",
          "type": "address"
        }
      ],
      "name": "winnerCounts",
      "outputs": [
        {
          "internalType": "uint256",
          "name": "",
          "type": "uint256"
        }
      ],
      "stateMutability": "view",
      "type": "function",
      "constant": true
    },
    {
      "inputs": [
        {
          "internalType": "uint256",
          "name": "",
          "type": "uint256"
        }
      ],
      "name": "winners",
      "outputs": [
        {
          "internalType": "address",
          "name": "",
          "type": "address"
        }
      ],
      "stateMutability": "view",
      "type": "function",
      "constant": true
    },
    {
      "inputs": [],
      "name": "getManager",
      "outputs": [
        {
          "internalType": "address",
          "name": "",
          "type": "address"
        }
      ],
      "stateMutability": "view",
      "type": "function",
      "constant": true
    },
    {
      "inputs": [],
      "name": "joinGame",
      "outputs": [],
      "stateMutability": "payable",
      "type": "function",
      "payable": true
    },
    {
      "inputs": [],
      "name": "viewPlayers",
      "outputs": [
        {
          "internalType": "address[]",
          "name": "",
          "type": "address[]"
        }
      ],
      "stateMutability": "view",
      "type": "function",
      "constant": true
    },
    {
      "inputs": [],
      "name": "getBalance",
      "outputs": [
        {
          "internalType": "uint256",
          "name": "",
          "type": "uint256"
        }
      ],
      "stateMutability": "view",
      "type": "function",
      "constant": true
    },
    {
      "inputs": [],
      "name": "pickWinner",
      "outputs": [
        {
          "internalType": "address",
          "name": "",
          "type": "address"
        }
      ],
      "stateMutability": "nonpayable",
      "type": "function"
    },
    {
      "inputs": [],
      "name": "transferPrize",
      "outputs": [],
      "stateMutability": "nonpayable",
      "type": "function"
    },
    {
      "inputs": [
        {
          "internalType": "address",
          "name": "player",
          "type": "address"
        }
      ],
      "name": "getWinCount",
      "outputs": [
        {
          "internalType": "uint256",
          "name": "",
          "type": "uint256"
        }
      ],
      "stateMutability": "view",
      "type": "function",
      "constant": true
    },
    {
      "inputs": [],
      "name": "viewPastWinners",
      "outputs": [
        {
          "internalType": "address[]",
          "name": "",
          "type": "address[]"
        }
      ],
      "stateMutability": "view",
      "type": "function",
      "constant": true
    }
  ],
  "bytecode": "0x6080604052336000806101000a81548173ffffffffffffffffffffffffffffffffffffffff021916908373ffffffffffffffffffffffffffffffffffffffff16021790555034801561005057600080fd5b506116e5806100606000396000f3fe6080604052600436106100e85760003560e01c8063d50095841161008a578063e60dd34211610059578063e60dd342146102db578063ea8c50c614610306578063f6b3e3c41461031d578063f71d96cb14610348576100e8565b8063d50095841461021d578063dfbf53ae14610248578063e0832cf614610273578063e3ac5d26146102b0576100e8565b8063a2fb1175116100c6578063a2fb11751461016e578063b31705d8146101ab578063be12f04b146101d6578063d4f77b1c14610213576100e8565b806312065fe0146100ed578063481c6a75146101185780635d495aea14610143575b600080fd5b3480156100f957600080fd5b50610102610385565b60405161010f9190610d8b565b60405180910390f35b34801561012457600080fd5b5061012d61038d565b60405161013a9190610de7565b60405180910390f35b34801561014f57600080fd5b506101586103b1565b6040516101659190610de7565b60405180910390f35b34801561017a57600080fd5b5061019560048036038101906101909190610e33565b61059d565b6040516101a29190610de7565b60405180910390f35b3480156101b757600080fd5b506101c06105dc565b6040516101cd9190610e7b565b60405180910390f35b3480156101e257600080fd5b506101fd60048036038101906101f89190610ec2565b6105ef565b60405161020a9190610d8b565b60405180910390f35b61021b610607565b005b34801561022957600080fd5b506102326107cd565b60405161023f9190610de7565b60405180910390f35b34801561025457600080fd5b5061025d6107f6565b60405161026a9190610de7565b60405180910390f35b34801561027f57600080fd5b5061029a60048036038101906102959190610ec2565b61081c565b6040516102a79190610d8b565b60405180910390f35b3480156102bc57600080fd5b506102c5610865565b6040516102d29190610d8b565b60405180910390f35b3480156102e757600080fd5b506102f061086b565b6040516102fd9190610fad565b60405180910390f35b34801561031257600080fd5b5061031b6108f9565b005b34801561032957600080fd5b50610332610b59565b60405161033f9190610fad565b60405180910390f35b34801561035457600080fd5b5061036f600480360381019061036a9190610e33565b610be7565b60405161037c9190610de7565b60405180910390f35b600047905090565b60008054906101000a900473ffffffffffffffffffffffffffffffffffffffff1681565b6000600360018054905010156103fc576040517f08c379a00000000000000000000000000000000000000000000000000000000081526004016103f390611052565b60405180910390fd5b600060018054905061040c610c26565b61041691906110a1565b90506001818154811061042c5761042b6110d2565b5b9060005260206000200160009054906101000a900473ffffffffffffffffffffffffffffffffffffffff16600660006101000a81548173ffffffffffffffffffffffffffffffffffffffff021916908373ffffffffffffffffffffffffffffffffffffffff16021790555060046000600660009054906101000a900473ffffffffffffffffffffffffffffffffffffffff1673ffffffffffffffffffffffffffffffffffffffff1673ffffffffffffffffffffffffffffffffffffffff168152602001908152602001600020600081548092919061050990611130565b9190505550476005819055507f7e57d825a2478cc8123a008d7d1e20c0f6e8cbca89a7bc100c9b05ecb3698deb600660009054906101000a900473ffffffffffffffffffffffffffffffffffffffff168260055460405161056c93929190611178565b60405180910390a1600660009054906101000a900473ffffffffffffffffffffffffffffffffffffffff1691505090565b600281815481106105ad57600080fd5b906000526020600020016000915054906101000a900473ffffffffffffffffffffffffffffffffffffffff1681565b600360009054906101000a900460ff1681565b60046020528060005260406000206000915090505481565b66b1a2bc2ec500003414610650576040517f08c379a0000000000000000000000000000000000000000000000000000000008152600401610647906111fb565b60405180910390fd5b600a60018054905010610698576040517f08c379a000000000000000000000000000000000000000000000000000000000815260040161068f9061128d565b60405180910390fd5b60005b600180549050811015610767573373ffffffffffffffffffffffffffffffffffffffff16600182815481106106d3576106d26110d2565b5b9060005260206000200160009054906101000a900473ffffffffffffffffffffffffffffffffffffffff1673ffffffffffffffffffffffffffffffffffffffff1603610754576040517f08c379a000000000000000000000000000000000000000000000000000000000815260040161074b9061131f565b60405180910390fd5b808061075f90611130565b91505061069b565b506001339080600181540180825580915050600190039060005260206000200160009091909190916101000a81548173ffffffffffffffffffffffffffffffffffffffff021916908373ffffffffffffffffffffffffffffffffffffffff160217905550565b60008060009054906101000a900473ffffffffffffffffffffffffffffffffffffffff16905090565b600660009054906101000a900473ffffffffffffffffffffffffffffffffffffffff1681565b6000600460008373ffffffffffffffffffffffffffffffffffffffff1673ffffffffffffffffffffffffffffffffffffffff168152602001908152602001600020549050919050565b60055481565b606060028054806020026020016040519081016040528092919081815260200182805480156108ef57602002820191906000526020600020905b8160009054906101000a900473ffffffffffffffffffffffffffffffffffffffff1673ffffffffffffffffffffffffffffffffffffffff16815260200190600101908083116108a5575b5050505050905090565b600660009054906101000a900473ffffffffffffffffffffffffffffffffffffffff1673ffffffffffffffffffffffffffffffffffffffff163373ffffffffffffffffffffffffffffffffffffffff1614610989576040517f08c379a0000000000000000000000000000000000000000000000000000000008152600401610980906113b1565b60405180910390fd5b600073ffffffffffffffffffffffffffffffffffffffff16600660009054906101000a900473ffffffffffffffffffffffffffffffffffffffff1673ffffffffffffffffffffffffffffffffffffffff1603610a1a576040517f08c379a0000000000000000000000000000000000000000000000000000000008152600401610a119061141d565b60405180910390fd5b600060055411610a5f576040517f08c379a0000000000000000000000000000000000000000000000000000000008152600401610a5690611489565b60405180910390fd5b600660009054906101000a900473ffffffffffffffffffffffffffffffffffffffff1673ffffffffffffffffffffffffffffffffffffffff166108fc6005549081150290604051600060405180830381858888f19350505050158015610ac9573d6000803e3d6000fd5b506002600660009054906101000a900473ffffffffffffffffffffffffffffffffffffffff169080600181540180825580915050600190039060005260206000200160009091909190916101000a81548173ffffffffffffffffffffffffffffffffffffffff021916908373ffffffffffffffffffffffffffffffffffffffff160217905550610b57610c69565b565b60606001805480602002602001604051908101604052809291908181526020018280548015610bdd57602002820191906000526020600020905b8160009054906101000a900473ffffffffffffffffffffffffffffffffffffffff1673ffffffffffffffffffffffffffffffffffffffff1681526020019060010190808311610b93575b5050505050905090565b60018181548110610bf757600080fd5b906000526020600020016000915054906101000a900473ffffffffffffffffffffffffffffffffffffffff1681565b6000600143610c3591906114a9565b40426001604051602001610c4b93929190611647565b6040516020818303038152906040528051906020012060001c905090565b600067ffffffffffffffff811115610c8457610c83611680565b5b604051908082528060200260200182016040528015610cb25781602001602082028036833780820191505090505b5060019080519060200190610cc8929190610ccb565b50565b828054828255906000526020600020908101928215610d44579160200282015b82811115610d435782518260006101000a81548173ffffffffffffffffffffffffffffffffffffffff021916908373ffffffffffffffffffffffffffffffffffffffff16021790555091602001919060010190610ceb565b5b509050610d519190610d55565b5090565b5b80821115610d6e576000816000905550600101610d56565b5090565b6000819050919050565b610d8581610d72565b82525050565b6000602082019050610da06000830184610d7c565b92915050565b600073ffffffffffffffffffffffffffffffffffffffff82169050919050565b6000610dd182610da6565b9050919050565b610de181610dc6565b82525050565b6000602082019050610dfc6000830184610dd8565b92915050565b600080fd5b610e1081610d72565b8114610e1b57600080fd5b50565b600081359050610e2d81610e07565b92915050565b600060208284031215610e4957610e48610e02565b5b6000610e5784828501610e1e565b91505092915050565b60008115159050919050565b610e7581610e60565b82525050565b6000602082019050610e906000830184610e6c565b92915050565b610e9f81610dc6565b8114610eaa57600080fd5b50565b600081359050610ebc81610e96565b92915050565b600060208284031215610ed857610ed7610e02565b5b6000610ee684828501610ead565b91505092915050565b600081519050919050565b600082825260208201905092915050565b6000819050602082019050919050565b610f2481610dc6565b82525050565b6000610f368383610f1b565b60208301905092915050565b6000602082019050919050565b6000610f5a82610eef565b610f648185610efa565b9350610f6f83610f0b565b8060005b83811015610fa0578151610f878882610f2a565b9750610f9283610f42565b925050600181019050610f73565b5085935050505092915050565b60006020820190508181036000830152610fc78184610f4f565b905092915050565b600082825260208201905092915050565b7f54686973206c6f7474657279206e65656473206d6f7265207468616e2033207060008201527f6c61796572730000000000000000000000000000000000000000000000000000602082015250565b600061103c602683610fcf565b915061104782610fe0565b604082019050919050565b6000602082019050818103600083015261106b8161102f565b9050919050565b7f4e487b7100000000000000000000000000000000000000000000000000000000600052601260045260246000fd5b60006110ac82610d72565b91506110b783610d72565b9250826110c7576110c6611072565b5b828206905092915050565b7f4e487b7100000000000000000000000000000000000000000000000000000000600052603260045260246000fd5b7f4e487b7100000000000000000000000000000000000000000000000000000000600052601160045260246000fd5b600061113b82610d72565b91507fffffffffffffffffffffffffffffffffffffffffffffffffffffffffffffffff820361116d5761116c611101565b5b600182019050919050565b600060608201905061118d6000830186610dd8565b61119a6020830185610d7c565b6111a76040830184610d7c565b949350505050565b7f496e636f72726563742065746865722076616c75652073656e74000000000000600082015250565b60006111e5601a83610fcf565b91506111f0826111af565b602082019050919050565b60006020820190508181036000830152611214816111d8565b9050919050565b7f4d6178696d756d206e756d626572206f6620706c61796572732072656163686560008201527f6400000000000000000000000000000000000000000000000000000000000000602082015250565b6000611277602183610fcf565b91506112828261121b565b604082019050919050565b600060208201905081810360008301526112a68161126a565b9050919050565b7f596f752061726520616c72656164792061207061727469636970616e7420696e60008201527f207468652067616d652e00000000000000000000000000000000000000000000602082015250565b6000611309602a83610fcf565b9150611314826112ad565b604082019050919050565b60006020820190508181036000830152611338816112fc565b9050919050565b7f4f6e6c79207468652077696e6e65722063616e20636c61696d2074686520707260008201527f697a650000000000000000000000000000000000000000000000000000000000602082015250565b600061139b602383610fcf565b91506113a68261133f565b604082019050919050565b600060208201905081810360008301526113ca8161138e565b9050919050565b7f57696e6e65722061646472657373206e6f742073657400000000000000000000600082015250565b6000611407601683610fcf565b9150611412826113d1565b602082019050919050565b60006020820190508181036000830152611436816113fa565b9050919050565b7f4e6f207072697a6520617661696c61626c6520746f207472616e736665720000600082015250565b6000611473601e83610fcf565b915061147e8261143d565b602082019050919050565b600060208201905081810360008301526114a281611466565b9050919050565b60006114b482610d72565b91506114bf83610d72565b92508282039050818111156114d7576114d6611101565b5b92915050565b6000819050919050565b6000819050919050565b6115026114fd826114dd565b6114e7565b82525050565b6000819050919050565b61152361151e82610d72565b611508565b82525050565b600081549050919050565b600081905092915050565b60008190508160005260206000209050919050565b61155d81610dc6565b82525050565b600061156f8383611554565b60208301905092915050565b60008160001c9050919050565b600073ffffffffffffffffffffffffffffffffffffffff82169050919050565b60006115bb6115b68361157b565b611588565b9050919050565b60006115ce82546115a8565b9050919050565b6000600182019050919050565b60006115ed82611529565b6115f78185611534565b93506116028361153f565b8060005b8381101561163a57611617826115c2565b6116218882611563565b975061162c836115d5565b925050600181019050611606565b5085935050505092915050565b600061165382866114f1565b6020820191506116638285611512565b60208201915061167382846115e2565b9150819050949350505050565b7f4e487b7100000000000000000000000000000000000000000000000000000000600052604160045260246000fdfea264697066735822122088c0ec05a31195c476c8be8aa338193cc046a6bf9916dbaaf0b722145f1a741f64736f6c63430008130033",
  "immutableReferences": {},
  "source": "// SPDX-License-Identifier: MIT\r\npragma solidity ^0.8.19;\r\n\r\ncontract Lottery {\r\n    address public manager = msg.sender;\r\n    address[] public players;\r\n    address[] public winners;\r\n    bool public countdownStatus;\r\n    mapping(address => uint) public winnerCounts;\r\n    uint public prize;\r\n    address public winner;\r\n\r\n    event WinnerPicked(address winner, uint256 index, uint256 prize);\r\n    event Status(string status);\r\n\r\n    function getManager() public view returns (address) {\r\n        return manager;\r\n    }\r\n\r\n    function joinGame() external payable {\r\n        require(msg.value == 0.05 ether, \"Incorrect ether value sent\");\r\n        require(players.length < 10, \"Maximum number of players reached\");\r\n        for (uint256 i = 0; i < players.length; i++) {\r\n            require(players[i] != msg.sender, \"You are already a participant in the game.\");\r\n        }\r\n        players.push(payable(msg.sender));\r\n    }\r\n\r\n    function viewPlayers() public view returns (address[] memory) {\r\n        return players;\r\n    }\r\n\r\n\r\n    function random() internal view returns (uint) {\r\n        return uint(keccak256(abi.encodePacked(blockhash(block.number - 1), block.timestamp, players)));\r\n    }\r\n\r\n    function getBalance() public view returns (uint) {\r\n        return address(this).balance;\r\n    }\r\n\r\n    modifier onlyManager() {\r\n        require(msg.sender == manager, \"Only manager can call this function\");\r\n        _;\r\n    }\r\n\r\n\r\n\r\nfunction pickWinner() public returns (address) {\r\n    require(players.length >= 3, \"This lottery needs more than 3 players\");\r\n    uint index = random() % players.length;\r\n    winner = players[index];\r\n    winnerCounts[winner]++;\r\n    prize = address(this).balance;\r\n\r\n    // Instead of transferring funds immediately, keep them in the contract\r\n    // until the winner explicitly claims the prize using the transferPrize function.\r\n    \r\n    emit WinnerPicked(winner, index, prize);\r\n    \r\n    return winner;\r\n}\r\n\r\nfunction transferPrize() public {\r\n    require(msg.sender == winner, \"Only the winner can claim the prize\");\r\n    \r\n    // Ensure that the winner is set before attempting to transfer the prize\r\n    require(winner != address(0), \"Winner address not set\");\r\n\r\n    // Check if there is a prize to transfer\r\n    require(prize > 0, \"No prize available to transfer\");\r\n\r\n    // Transfer the prize to the winner\r\n    payable(winner).transfer(prize);\r\n\r\n    // Record the winner and reset for the next round\r\n    winners.push(winner);\r\n    startAgain();\r\n}\r\n\r\n\r\n    function getWinCount(address player) public view returns (uint) {\r\n        return winnerCounts[player];\r\n    }\r\n\r\n    function viewPastWinners() public view returns (address[] memory) {\r\n        return winners;\r\n    }\r\n\r\n    function startAgain() private {\r\n        players = new address[](0);\r\n    }\r\n}\r\n",
  "sourcePath": "C:\\Users\\akint\\Documents\\Nodeproject\\Lottery\\contracts\\lottery.sol",
  "compiler": {
    "name": "solc",
    "version": "0.8.19+commit.7dd6d404.Emscripten.clang"
  },
  "schemaVersion": "3.4.16",
  "updatedAt": "2023-12-23T22:52:29.106Z",
  "networkType": "ethereum",
  "devdoc": {
    "kind": "dev",
    "methods": {},
    "version": 1
  },
  "userdoc": {
    "kind": "user",
    "methods": {},
    "version": 1
  }
}