{
  "contractName": "Lottery",
  "abi": [
    {
      "anonymous": false,
      "inputs": [
        {
          "indexed": false,
          "internalType": "string",
          "name": "status",
          "type": "string"
        }
      ],
      "name": "Status",
      "type": "event"
    },
    {
      "anonymous": false,
      "inputs": [
        {
          "indexed": false,
          "internalType": "address",
          "name": "winner",
          "type": "address"
        },
        {
          "indexed": false,
          "internalType": "uint256",
          "name": "index",
          "type": "uint256"
        },
        {
          "indexed": false,
          "internalType": "uint256",
          "name": "prize",
          "type": "uint256"
        }
      ],
      "name": "WinnerPicked",
      "type": "event"
    },
    {
      "inputs": [],
      "name": "countdownStatus",
      "outputs": [
        {
          "internalType": "bool",
          "name": "",
          "type": "bool"
        }
      ],
      "stateMutability": "view",
      "type": "function"
    },
    {
      "inputs": [],
      "name": "manager",
      "outputs": [
        {
          "internalType": "address",
          "name": "",
          "type": "address"
        }
      ],
      "stateMutability": "view",
      "type": "function"
    },
    {
      "inputs": [
        {
          "internalType": "uint256",
          "name": "",
          "type": "uint256"
        }
      ],
      "name": "players",
      "outputs": [
        {
          "internalType": "address",
          "name": "",
          "type": "address"
        }
      ],
      "stateMutability": "view",
      "type": "function"
    },
    {
      "inputs": [
        {
          "internalType": "address",
          "name": "",
          "type": "address"
        }
      ],
      "name": "winnerCounts",
      "outputs": [
        {
          "internalType": "uint256",
          "name": "",
          "type": "uint256"
        }
      ],
      "stateMutability": "view",
      "type": "function"
    },
    {
      "inputs": [
        {
          "internalType": "uint256",
          "name": "",
          "type": "uint256"
        }
      ],
      "name": "winners",
      "outputs": [
        {
          "internalType": "address",
          "name": "",
          "type": "address"
        }
      ],
      "stateMutability": "view",
      "type": "function"
    },
    {
      "inputs": [],
      "name": "getManager",
      "outputs": [
        {
          "internalType": "address",
          "name": "",
          "type": "address"
        }
      ],
      "stateMutability": "view",
      "type": "function"
    },
    {
      "inputs": [],
      "name": "joinGame",
      "outputs": [],
      "stateMutability": "payable",
      "type": "function"
    },
    {
      "inputs": [],
      "name": "viewPlayers",
      "outputs": [
        {
          "internalType": "address[]",
          "name": "",
          "type": "address[]"
        }
      ],
      "stateMutability": "view",
      "type": "function"
    },
    {
      "inputs": [],
      "name": "checkCountdown",
      "outputs": [],
      "stateMutability": "nonpayable",
      "type": "function"
    },
    {
      "inputs": [],
      "name": "getBalance",
      "outputs": [
        {
          "internalType": "uint256",
          "name": "",
          "type": "uint256"
        }
      ],
      "stateMutability": "view",
      "type": "function"
    },
    {
      "inputs": [],
      "name": "pickWinner",
      "outputs": [
        {
          "internalType": "address",
          "name": "",
          "type": "address"
        }
      ],
      "stateMutability": "nonpayable",
      "type": "function"
    },
    {
      "inputs": [
        {
          "internalType": "address",
          "name": "player",
          "type": "address"
        }
      ],
      "name": "getWinCount",
      "outputs": [
        {
          "internalType": "uint256",
          "name": "",
          "type": "uint256"
        }
      ],
      "stateMutability": "view",
      "type": "function"
    },
    {
      "inputs": [],
      "name": "viewPastWinners",
      "outputs": [
        {
          "internalType": "address[]",
          "name": "",
          "type": "address[]"
        }
      ],
      "stateMutability": "view",
      "type": "function"
    }
  ],
  "bytecode": "0x6080604052336000806101000a81548173ffffffffffffffffffffffffffffffffffffffff021916908373ffffffffffffffffffffffffffffffffffffffff16021790555034801561005057600080fd5b50611543806100606000396000f3fe6080604052600436106100c25760003560e01c8063d4f77b1c1161007f578063e0832cf611610059578063e0832cf614610239578063e60dd34214610276578063f6b3e3c4146102a1578063f71d96cb146102cc576100c2565b8063d4f77b1c146101ed578063d5009584146101f7578063d7b3976c14610222576100c2565b806312065fe0146100c7578063481c6a75146100f25780635d495aea1461011d578063a2fb117514610148578063b31705d814610185578063be12f04b146101b0575b600080fd5b3480156100d357600080fd5b506100dc610309565b6040516100e99190610bda565b60405180910390f35b3480156100fe57600080fd5b50610107610311565b6040516101149190610c36565b60405180910390f35b34801561012957600080fd5b50610132610335565b60405161013f9190610c36565b60405180910390f35b34801561015457600080fd5b5061016f600480360381019061016a9190610c82565b610599565b60405161017c9190610c36565b60405180910390f35b34801561019157600080fd5b5061019a6105d8565b6040516101a79190610cca565b60405180910390f35b3480156101bc57600080fd5b506101d760048036038101906101d29190610d11565b6105eb565b6040516101e49190610bda565b60405180910390f35b6101f5610603565b005b34801561020357600080fd5b5061020c6107c9565b6040516102199190610c36565b60405180910390f35b34801561022e57600080fd5b506102376107f2565b005b34801561024557600080fd5b50610260600480360381019061025b9190610d11565b6108d1565b60405161026d9190610bda565b60405180910390f35b34801561028257600080fd5b5061028b61091a565b6040516102989190610dfc565b60405180910390f35b3480156102ad57600080fd5b506102b66109a8565b6040516102c39190610dfc565b60405180910390f35b3480156102d857600080fd5b506102f360048036038101906102ee9190610c82565b610a36565b6040516103009190610c36565b60405180910390f35b600047905090565b60008054906101000a900473ffffffffffffffffffffffffffffffffffffffff1681565b6000600360009054906101000a900460ff16610386576040517f08c379a000000000000000000000000000000000000000000000000000000000815260040161037d90610e7b565b60405180910390fd5b600360018054905010156103cf576040517f08c379a00000000000000000000000000000000000000000000000000000000081526004016103c690610f0d565b60405180910390fd5b60006001805490506103df610a75565b6103e99190610f5c565b905060006001828154811061040157610400610f8d565b5b9060005260206000200160009054906101000a900473ffffffffffffffffffffffffffffffffffffffff169050600460008273ffffffffffffffffffffffffffffffffffffffff1673ffffffffffffffffffffffffffffffffffffffff168152602001908152602001600020600081548092919061047e90610feb565b919050555060004790508173ffffffffffffffffffffffffffffffffffffffff166108fc829081150290604051600060405180830381858888f193505050501580156104ce573d6000803e3d6000fd5b506002829080600181540180825580915050600190039060005260206000200160009091909190916101000a81548173ffffffffffffffffffffffffffffffffffffffff021916908373ffffffffffffffffffffffffffffffffffffffff1602179055507f7e57d825a2478cc8123a008d7d1e20c0f6e8cbca89a7bc100c9b05ecb3698deb82848360405161056593929190611033565b60405180910390a1610575610ab8565b6000600360006101000a81548160ff02191690831515021790555081935050505090565b600281815481106105a957600080fd5b906000526020600020016000915054906101000a900473ffffffffffffffffffffffffffffffffffffffff1681565b600360009054906101000a900460ff1681565b60046020528060005260406000206000915090505481565b6611c37937e08000341461064c576040517f08c379a0000000000000000000000000000000000000000000000000000000008152600401610643906110b6565b60405180910390fd5b600a60018054905010610694576040517f08c379a000000000000000000000000000000000000000000000000000000000815260040161068b90611148565b60405180910390fd5b60005b600180549050811015610763573373ffffffffffffffffffffffffffffffffffffffff16600182815481106106cf576106ce610f8d565b5b9060005260206000200160009054906101000a900473ffffffffffffffffffffffffffffffffffffffff1673ffffffffffffffffffffffffffffffffffffffff1603610750576040517f08c379a0000000000000000000000000000000000000000000000000000000008152600401610747906111da565b60405180910390fd5b808061075b90610feb565b915050610697565b506001339080600181540180825580915050600190039060005260206000200160009091909190916101000a81548173ffffffffffffffffffffffffffffffffffffffff021916908373ffffffffffffffffffffffffffffffffffffffff160217905550565b60008060009054906101000a900473ffffffffffffffffffffffffffffffffffffffff16905090565b600360009054906101000a900460ff1615610842576040517f08c379a000000000000000000000000000000000000000000000000000000000815260040161083990611246565b60405180910390fd5b6001600360006101000a81548160ff02191690831515021790555060006040518060400160405280600481526020017f646f6e650000000000000000000000000000000000000000000000000000000081525090507f2844c95bf1b4598da931d527f903501abc60fe0199c65da52d5ce818c6c5e961816040516108c691906112e5565b60405180910390a150565b6000600460008373ffffffffffffffffffffffffffffffffffffffff1673ffffffffffffffffffffffffffffffffffffffff168152602001908152602001600020549050919050565b6060600280548060200260200160405190810160405280929190818152602001828054801561099e57602002820191906000526020600020905b8160009054906101000a900473ffffffffffffffffffffffffffffffffffffffff1673ffffffffffffffffffffffffffffffffffffffff1681526020019060010190808311610954575b5050505050905090565b60606001805480602002602001604051908101604052809291908181526020018280548015610a2c57602002820191906000526020600020905b8160009054906101000a900473ffffffffffffffffffffffffffffffffffffffff1673ffffffffffffffffffffffffffffffffffffffff16815260200190600101908083116109e2575b5050505050905090565b60018181548110610a4657600080fd5b906000526020600020016000915054906101000a900473ffffffffffffffffffffffffffffffffffffffff1681565b6000600143610a849190611307565b40426001604051602001610a9a939291906114a5565b6040516020818303038152906040528051906020012060001c905090565b600067ffffffffffffffff811115610ad357610ad26114de565b5b604051908082528060200260200182016040528015610b015781602001602082028036833780820191505090505b5060019080519060200190610b17929190610b1a565b50565b828054828255906000526020600020908101928215610b93579160200282015b82811115610b925782518260006101000a81548173ffffffffffffffffffffffffffffffffffffffff021916908373ffffffffffffffffffffffffffffffffffffffff16021790555091602001919060010190610b3a565b5b509050610ba09190610ba4565b5090565b5b80821115610bbd576000816000905550600101610ba5565b5090565b6000819050919050565b610bd481610bc1565b82525050565b6000602082019050610bef6000830184610bcb565b92915050565b600073ffffffffffffffffffffffffffffffffffffffff82169050919050565b6000610c2082610bf5565b9050919050565b610c3081610c15565b82525050565b6000602082019050610c4b6000830184610c27565b92915050565b600080fd5b610c5f81610bc1565b8114610c6a57600080fd5b50565b600081359050610c7c81610c56565b92915050565b600060208284031215610c9857610c97610c51565b5b6000610ca684828501610c6d565b91505092915050565b60008115159050919050565b610cc481610caf565b82525050565b6000602082019050610cdf6000830184610cbb565b92915050565b610cee81610c15565b8114610cf957600080fd5b50565b600081359050610d0b81610ce5565b92915050565b600060208284031215610d2757610d26610c51565b5b6000610d3584828501610cfc565b91505092915050565b600081519050919050565b600082825260208201905092915050565b6000819050602082019050919050565b610d7381610c15565b82525050565b6000610d858383610d6a565b60208301905092915050565b6000602082019050919050565b6000610da982610d3e565b610db38185610d49565b9350610dbe83610d5a565b8060005b83811015610def578151610dd68882610d79565b9750610de183610d91565b925050600181019050610dc2565b5085935050505092915050565b60006020820190508181036000830152610e168184610d9e565b905092915050565b600082825260208201905092915050565b7f436f756e74646f776e206e6f7420636f6d706c65746564000000000000000000600082015250565b6000610e65601783610e1e565b9150610e7082610e2f565b602082019050919050565b60006020820190508181036000830152610e9481610e58565b9050919050565b7f54686973206c6f7474657279206e65656473206d6f7265207468616e2033207060008201527f6c61796572730000000000000000000000000000000000000000000000000000602082015250565b6000610ef7602683610e1e565b9150610f0282610e9b565b604082019050919050565b60006020820190508181036000830152610f2681610eea565b9050919050565b7f4e487b7100000000000000000000000000000000000000000000000000000000600052601260045260246000fd5b6000610f6782610bc1565b9150610f7283610bc1565b925082610f8257610f81610f2d565b5b828206905092915050565b7f4e487b7100000000000000000000000000000000000000000000000000000000600052603260045260246000fd5b7f4e487b7100000000000000000000000000000000000000000000000000000000600052601160045260246000fd5b6000610ff682610bc1565b91507fffffffffffffffffffffffffffffffffffffffffffffffffffffffffffffffff820361102857611027610fbc565b5b600182019050919050565b60006060820190506110486000830186610c27565b6110556020830185610bcb565b6110626040830184610bcb565b949350505050565b7f496e636f72726563742065746865722076616c75652073656e74000000000000600082015250565b60006110a0601a83610e1e565b91506110ab8261106a565b602082019050919050565b600060208201905081810360008301526110cf81611093565b9050919050565b7f4d6178696d756d206e756d626572206f6620706c61796572732072656163686560008201527f6400000000000000000000000000000000000000000000000000000000000000602082015250565b6000611132602183610e1e565b915061113d826110d6565b604082019050919050565b6000602082019050818103600083015261116181611125565b9050919050565b7f596f752061726520616c72656164792061207061727469636970616e7420696e60008201527f207468652067616d652e00000000000000000000000000000000000000000000602082015250565b60006111c4602a83610e1e565b91506111cf82611168565b604082019050919050565b600060208201905081810360008301526111f3816111b7565b9050919050565b7f436f756e74646f776e20686173206e6f7420636f6d706c657465640000000000600082015250565b6000611230601b83610e1e565b915061123b826111fa565b602082019050919050565b6000602082019050818103600083015261125f81611223565b9050919050565b600081519050919050565b60005b8381101561128f578082015181840152602081019050611274565b60008484015250505050565b6000601f19601f8301169050919050565b60006112b782611266565b6112c18185610e1e565b93506112d1818560208601611271565b6112da8161129b565b840191505092915050565b600060208201905081810360008301526112ff81846112ac565b905092915050565b600061131282610bc1565b915061131d83610bc1565b925082820390508181111561133557611334610fbc565b5b92915050565b6000819050919050565b6000819050919050565b61136061135b8261133b565b611345565b82525050565b6000819050919050565b61138161137c82610bc1565b611366565b82525050565b600081549050919050565b600081905092915050565b60008190508160005260206000209050919050565b6113bb81610c15565b82525050565b60006113cd83836113b2565b60208301905092915050565b60008160001c9050919050565b600073ffffffffffffffffffffffffffffffffffffffff82169050919050565b6000611419611414836113d9565b6113e6565b9050919050565b600061142c8254611406565b9050919050565b6000600182019050919050565b600061144b82611387565b6114558185611392565b93506114608361139d565b8060005b838110156114985761147582611420565b61147f88826113c1565b975061148a83611433565b925050600181019050611464565b5085935050505092915050565b60006114b1828661134f565b6020820191506114c18285611370565b6020820191506114d18284611440565b9150819050949350505050565b7f4e487b7100000000000000000000000000000000000000000000000000000000600052604160045260246000fdfea2646970667358221220c6faaa16005b5a573fb959b9136e310e1e28d947e1f38bf2031732f00fefd7a964736f6c63430008130033",
  "immutableReferences": {},
  "source": "// SPDX-License-Identifier: MIT\r\npragma solidity ^0.8.19;\r\n\r\ncontract Lottery {\r\n    address public manager = msg.sender;\r\n    address[] public players;\r\n    address[] public winners;\r\n    bool public countdownStatus;\r\n    mapping(address => uint) public winnerCounts;\r\n\r\n    event WinnerPicked(address winner, uint256 index, uint256 prize);\r\n    event Status(string status);\r\n\r\n    function getManager() public view returns (address) {\r\n        return manager;\r\n    }\r\n\r\n    function joinGame() external payable {\r\n        require(msg.value == 0.005 ether, \"Incorrect ether value sent\");\r\n        require(players.length < 10, \"Maximum number of players reached\");\r\n        for (uint256 i = 0; i < players.length; i++) {\r\n            require(players[i] != msg.sender, \"You are already a participant in the game.\");\r\n        }\r\n        players.push(payable(msg.sender));\r\n    }\r\n\r\n    function viewPlayers() public view returns (address[] memory) {\r\n        return players;\r\n    }\r\n\r\n    function checkCountdown() public {\r\n        require(!countdownStatus, \"Countdown has not completed\");\r\n        countdownStatus = true;\r\n        string memory status = \"done\";\r\n        emit Status(status);\r\n    }\r\n\r\n    function random() private view returns (uint) {\r\n        return uint(keccak256(abi.encodePacked(blockhash(block.number - 1), block.timestamp, players)));\r\n    }\r\n\r\n    function getBalance() public view returns (uint) {\r\n        return address(this).balance;\r\n    }\r\n\r\n    modifier onlyManager() {\r\n        require(msg.sender == manager, \"Only manager can call this function\");\r\n        _;\r\n    }\r\n\r\n    function pickWinner() public returns (address) {\r\n        require(countdownStatus, \"Countdown not completed\");\r\n        require(players.length >= 3, \"This lottery needs more than 3 players\");\r\n        uint index = random() % players.length;\r\n        address winner = players[index];\r\n        winnerCounts[winner]++;\r\n        uint prize = address(this).balance;\r\n        payable(winner).transfer(prize);\r\n        winners.push(winner);\r\n        emit WinnerPicked(winner, index, prize);\r\n        startAgain();\r\n        countdownStatus = false;\r\n        return winner;\r\n    }\r\n\r\n    function getWinCount(address player) public view returns (uint) {\r\n        return winnerCounts[player];\r\n    }\r\n\r\n    function viewPastWinners() public view returns (address[] memory) {\r\n        return winners;\r\n    }\r\n\r\n    function startAgain() private {\r\n        players = new address[](0);\r\n    }\r\n}\r\n",
  "sourcePath": "C:\\Users\\akint\\Documents\\Nodeproject\\Lottery\\contracts\\lottery.sol",
  "compiler": {
    "name": "solc",
    "version": "0.8.19+commit.7dd6d404.Emscripten.clang"
  },
  "schemaVersion": "3.4.16",
  "updatedAt": "2023-12-21T18:57:44.634Z",
  "devdoc": {
    "kind": "dev",
    "methods": {},
    "version": 1
  },
  "userdoc": {
    "kind": "user",
    "methods": {},
    "version": 1
  }
}